:020000040800F2
:10000000183B0020B9010008C7220008F11F0008B2
:10001000C522000811190008B728000800000000D8
:10002000000000000000000000000000792400082B
:10003000011D000800000000492300083D250008BC
:10004000D3010008D3010008D3010008D301000840
:10005000D3010008D3010008D3010008D301000830
:10006000D3010008D3010008D3010008D301000820
:10007000D3010008D3010008D3010008D301000810
:10008000D3010008D3010008D3010008D301000800
:10009000D3010008D3010008D3010008051D0008A2
:1000A000D301000891250008D3010008D3010008FE
:1000B000B5250008D5250008F9250008D30100085A
:1000C000D3010008D3010008D3010008D3010008C0
:1000D000D3010008FD260008212700084527000855
:1000E000D3010008D3010008D301000800F002F892
:1000F00000F053F80AA090E8000C82448344AAF16F
:100100000107DA4501D100F048F8AFF2090EBAE86C
:100110000F0013F0010F18BFFB1A43F0010318473B
:1001200080730000A0730000103A24BF78C878C123
:10013000FAD8520724BF30C830C144BF04680C60ED
:10014000704700000023002400250026103A28BF35
:1001500078C1FBD8520728BF30C148BF0B60704739
:10016000662905F0A084642900F0BA80732900F0A4
:10017000CA84002070471FB500F020FD0400002055
:10018000002104F023FE401C60600020002104F0E8
:1001900007FEE0601FBD10B510BD00F05FFE114608
:1001A000FFF7E9FF02F048FD00F08BFE03B4FFF714
:1001B000F2FF03BC02F09BFB094880470948004757
:1001C000FEE7FEE7FEE7FEE7FEE7FEE7FEE7FEE707
:1001D000FEE7FEE704480549054A064B7047000064
:1001E00041250008ED000008182F0020183B0020D2
:1001F0001833002018330020704700000FB4044962
:1002000010B503AA029800F083FC10BC5DF814FB43
:10021000A40000200FB41CB5084B06AA7B44694615
:100220000090059800F045FC04460020694600F067
:1002300053FC20461CBC5DF814FB0000B90800000C
:1002400070B5044685690068C10601D5302600E016
:100250002026C00707D070BDD4E901213046904761
:10026000206A401C20626D1EF6D570BD70B5044634
:1002700085690078C00707D170BDD4E9012120202D
:100280009047206A401C20626D1EF6D570BD70B587
:100290000C460546012A05D02878800600D5EA6973
:1002A000002302E0012305E05B1C934202D2E05CE4
:1002B0000028F9D1A869E618C01AA861286A18446C
:1002C00028622846FFF7BCFF04E0D5E9012114F8B5
:1002D000010B9047B442F8D32846FFF7C7FF70BD23
:1002E0002DE9F0410646002410687529314616A50F
:1002F00010D0AFF30080002802DA404213A507E0D7
:1003000031688A0701D512A502E0490704D511A575
:10031000012401E0AFF3008000210A2206F1240746
:1003200009E0B0FBF2FCB0FBF2F302FB1C00303042
:1003300078541846491C0028F3D123462A463046F3
:10034000BDE8F04100F048B9000000002D000000B9
:100350002B000000200000002DE9F05F89460446D4
:100360004FF0000ADFF874B1FB44C0F820A020462B
:10037000E1688847002874D0252806D0D4E90121F7
:100380009047206A401C2062F1E700265F46204625
:10039000E16888472028054607DB312D05D278190A
:1003A00010F8200C08B10643F1E7B00701D526F09C
:1003B0000406C4F81CA00027C4F818A02A2D09D0F0
:1003C000284602F08DFA38B304EB8708303DC8F8B0
:1003D000185019E059F8041B204604EB870291617C
:1003E000E1688847012F054618D1E069002820DA26
:1003F00026F020061DE0D8F8180000EB800005EB81
:1004000040003038C8F818002046E16888470546A3
:1004100002F066FA0028EED1012F0AD02E2D08D165
:100420002046E16888477F1C0546022F46F02006DB
:10043000C4DBA069002803DA404246F00106A0614F
:10044000F00701D026F010066C2D0BD0682D09D0D6
:100450004C2D39D06A2D35D0742D35D07A2D33D02E
:1004600016E038E0E1682F4620468847B842054646
:1004700009D16C2F26D04FF48060E16806432046F6
:100480008847054604E06C2F1AD04FF4807006436D
:100490000DB3A5F14100192802D8203546F40066B5
:1004A0004A462946204626604E46FFF759FE80B14F
:1004B00001280BD0F61D26F0070000F1080956E7C9
:1004C0004020E4E78020D8E70020D6E706F10409C1
:1004D0004DE7284652E7206ABDE8F09F796F00009B
:1004E00070B5064600F074F80468054630460A22E6
:1004F000002100F01FFB2C6070BD30B505460B4697
:100500002A4613F8014B12F8010B08B1A042F8D0AB
:100510001CB1002802D06D1CF1E7284630BD421EF8
:1005200012F8013F002BFBD111F8013B002B02F820
:10053000013BF9D170474FF000020429C0F012804E
:1005400010F0030C00F01B80CCF1040CBCF1020F86
:1005500018BF00F8012BA8BF20F8022BA1EB0C015B
:1005600000F00DB85FEAC17C24BF00F8012B00F851
:10057000012B48BF00F8012B70474FF0000200B577
:10058000134694469646203922BFA0E80C50A0E8B6
:100590000C50B1F12001BFF4F7AF090728BFA0E864
:1005A0000C5048BF0CC05DF804EB890028BF40F830
:1005B000042B08BF704748BF20F8022B11F0804F72
:1005C00018BF00F8012B704770477047704770479D
:1005D00000487047B82E00202DE9F0470D46994697
:1005E0009246044600F124080168880604D5E069B3
:1005F00021F01001216000E00120A84201DD471B2D
:1006000000E00027A1697A1902EB0900081AA0612D
:100610002078C00602D42046FFF712FE002608E02C
:10062000D4E901211AF806009047206A401C761C84
:1006300020624E45F4DB2078C0060AD52046FFF73D
:10064000FFFD06E0D4E9012130209047206A401CDC
:100650002062381EA7F10107F4DC07E0D4E901218C
:1006600018F805009047206A401C2062281EA5F15A
:100670000105F3DC2046FFF7F9FD2078000602D5DE
:100680000220BDE8F0870120FBE770472DE9FF4F0E
:100690000C461E464FF0FF378BB0D2E90001DDF863
:1006A00060800A908A46C1F30A5505B93D4600218B
:1006B00008464FF00000BAF1000F00F4400005DAE0
:1006C00000EB80004FF4400101EA50004FEA9059DE
:1006D000B9F1010F00DDB9460A9850EA4A000ED080
:1006E00044F61050A5F2FF3545432F14B8F1000F22
:1006F0001ED07542291E1EDDC9F100021CE0B8F1B2
:10070000010F4FF0000001D0302103E0F24305E07B
:100710002154401CB042FBDB304600220021215412
:100720000B99C1F80880C1E900200FB0BDE8F08F37
:10073000BD1B6D1CDEE74A4600DA694206A800F0E0
:1007400017FB06AB93E8070003AB83E807005046AE
:100750000A9900F0FFFB8DE80700A0F500501F3854
:1007600000900398002D0ADD42F21F014A4608441A
:10077000002303A90390684600F068FE09E0A0F595
:1007800000504A461F38002303A90390684600F032
:1007900072FE8DE807000004000C03D04FF0FF301C
:1007A000410800E01046B8F1000F03D0002200928B
:1007B00015461EE0751E05D400F004FA303262556D
:1007C0006D1EF9D5B3460122084302D000227F1CDA
:1007D00004E02078302801D100227F1E002A0997EA
:1007E00084D01DE0112D07DA00F0ECF930326255AB
:1007F0006D1C50EA0102F5D1084302D00098C8B13F
:100800000EE00021681E05E0235C625C6354225404
:10081000401E491C8142F7DBAB46A81B401E0990D5
:10082000002004F80B000B98099AC0F80880C0E972
:10083000002B7AE711264FF0000857E72DE9F04F1B
:1008400088460446D21D22F0070191B0D1E900018B
:10085000CDE90A0102F030F802460B98C00F01D032
:100860002D2007E02068810701D52B2002E0202100
:1008700001EAC000032A099001D0072A05DB0346DC
:100880004146204600F0E4F90BE12078800601D5CE
:10089000E06900E00620B8F1650F814606D0B8F1A6
:1008A000660F18D0B8F1670F70D131E00020B9F1B0
:1008B000110F009001DB112301E009F101030AAAE5
:1008C00001A90CA8FFF7E2FEDDE90C70002609F192
:1008D0000105834647E001204B4600904FF000475A
:1008E0000AAA01A90CA8FFF7D1FEDDE90DB00C9909
:1008F0005D46002610B909F101000D18B9EB05009D
:1009000003D4C0F1FF3609F10105A5EB09002BE086
:10091000B9F1010F01DA4FF001090020B9F1110F0F
:100920000090484601DD112300E003460AAA01A910
:100930000CA8FFF7ABFEDDE90C704D4600268346A0
:10094000207800070AD4AB4500DA5D4601A8012DE6
:1009500004DD411911F8011C302907D04F4502DA96
:1009600017F1040F04DA012082460FE06D1EEEE756
:10097000002F02DCED1B3E4403E0781CA84200DDA2
:100980007D1CB81B00F1010A4FF0004720780007DA
:1009900003D4AA4501DB4FF0FF3A0021B7F1004F25
:1009A0000DF143088DF8431024D002202B23002F93
:1009B00001DA7F422D230A21021EA0F1010000DC92
:1009C0005FB197FBF1FC97FBF1F201FB1C7C174632
:1009D0000CF1300C08F801CDEEE7A8F1010003702E
:1009E0002188090501D5452100E06521A0F1010814
:1009F00000F8011C09980FA9A1EB0807FF1D00B121
:100A00000120411901EBEA70A1693844081A401E1F
:100A1000A0612078C00602D42046FFF711FC099897
:100A200028B1D4E901219047206A401C2062207837
:100A3000C00622D52046FFF703FC1EE0002E04DB93
:100A4000B34502DD01A8805D00E03020D4E901213A
:100A50009047206A401C2062761CAAF101005FEAE0
:100A6000000A0AD100F0AAF8C0680168405CD4E925
:100A700001219047206A401C2062281EA5F1010533
:100A8000DCDC07E0D4E9012118F8010B9047206A6B
:100A9000401C2062381EA7F10107F3DC2046FFF757
:100AA000E5FB032011B041E601694A1C02610878A8
:100AB000704700B58FB0CDE901310021059105499E
:100AC0007944CDE9031011466846FFF745FC0FB0A5
:100AD00000BD0000E5FFFFFF0A6802F8010B0A6095
:100AE000704710B5436913B1AFF3008001E0FFF721
:100AF000CEFB012010BD127800F124010A70002203
:100B00004A700122EDE711684FF0FF32E9E700007B
:100B1000074B70B50D467B44FFF7CBFF04462846D4
:100B200000F098F910B14FF0FF3070BD204670BD55
:100B30007B1E00002DE9F04791460F468046044693
:100B4000002614F8015B2DB100F030F80068405D1C
:100B5000C007F6D12B2D02D02D2D18D0641E4A4689
:100B60003946204600F0B4F827B13968A14201D1D6
:100B7000C7F800804FF0020471050BD540420028F1
:100B800003DDFFF725FD0460A007BDE8F08746F40C
:100B90008066E4E70028F8DAFFF71AFD04606FF0DA
:100BA0000040F2E700487047B82E002010B500F072
:100BB00005F8001D10BD00BF154200000048704739
:100BC000D82E002030B5B0F10A024FEA900E71F134
:100BD00000034EEA817EB0EB0E0061EB91014FEA1B
:100BE000101E4EEA017E10EB0E0041EB11114FEA90
:100BF000102E4EEA016E10EB0E0041EB11214FEA70
:100C0000104E4EEA014E10EB0E0041EB1141401820
:100C100041F100014FEAD00040EA41704FEAD101B2
:100C200010EB80054FEA810444EA907444EB010420
:100C30006D1944EB0404521BA3414FF0000348BF5D
:100C40000A3200D530BD401C41F1000130BD00002A
:100C50002DE9F0411F46044603260168072A01F4E6
:100C6000006004DB08B116A505E016A503E008B195
:100C700015A500E015A521F010002060A069C01E98
:100C8000A0610FB1401EA0612046FFF7D9FA4FB115
:100C9000D4E9012138469047206A401C2062C01CDC
:100CA000206206E0206AFAE7D4E9012115F8010B79
:100CB0009047761EF8D22046FFF7D8FABDE8F081BB
:100CC0004E414E006E616E00494E4600696E6600F0
:100CD0002DE9F05F824615468B4600270AF1010494
:100CE000B9460078302801D09DB113E014F8010B0B
:100CF0000127782803D0582801D045B10AE00DB16A
:100D0000102D07D1002714F8010B102502E008254B
:100D100000E00A250026B0460EE005FB080005FBB2
:100D200006F101271FFA80F801EB1046B6F5803F67
:100D300000D3B94614F8010B294600F0B4F8002896
:100D4000EBDABBF1000F05D00FB1641E00E0544692
:100D5000CBF80040B9F1000F06D0FFF739FC0221B3
:100D60000160C81EBDE8F09F48EA0640FAE70000AF
:100D70002DE9F047814616468AB0354878440DC8BB
:100D80008DE80D0032487844801C03AC0DC884E81F
:100D90000D0041F69B300844372190FBF1F290FBA7
:100DA000F1F5A5F1800501FB12041B3C02D564425C
:100DB000012000E00020DFF898A080460027FA44D8
:100DC000AAF1BE0A0EE0E0070AD03246684607EBF9
:100DD000470101230AEB810100F04DFB8DE807007C
:100DE00064107F1C002CEED1194F7F44AE3F19E0F8
:100DF000E80715D007EB04100DF1180A90E80E0073
:100E00008AE80E00C068F04201D198190890324675
:100E1000012306A903A800F02EFB03AB83E807001B
:100E20006D10641C002DE3D14FF00103324669467A
:100E3000B8F1000F03A802D000F008FB01E000F0B9
:100E40001AFBC9E90001C9F808200AB0BDE8F0871B
:100E5000F4650000007B00F0800070477546FFF7E6
:100E6000A1FEAE4605006946534620F007008546C0
:100E700018B020B5FFF7AEF9BDE820404FF00006EE
:100E80004FF000074FF000084FF0000B21F0070172
:100E9000AC46ACE8C009ACE8C009ACE8C009ACE8B5
:100EA000C0098D4670473A2800D2303820F0200221
:100EB000412A01D3A2F13700884201D34FF0FF301D
:100EC000704710B50446AFF300802046BDE81040DF
:100ED000FFF76CB94FF0013C50F8042B51F8043B7C
:100EE0009A4221D1A2EB0C03934313EACC1317D1FE
:100EF00050F8042B51F8043B9A4215D1A2EB0C0395
:100F0000934313EACC130BD150F8042B51F8043B54
:100F10009A4209D1A2EB0C03934313EACC13DBD022
:100F20004FF00000704700BFD01A01BAB1FA81F14A
:100F300001F0180122FA01F0CB40C1F12001DBB22F
:100F4000C0B2C01A2CFA01F3D11A914311EAC311AD
:100F5000E6D170475FEA400C08BF91F0000F4FEAFE
:100F60008C234FEAC12243EA51514FEA1C5018BF6B
:100F700000F5F0404FEA300018BF41F000415FEA51
:100F80006C5C00F02980BCF1FF3F08BF40F080405E
:100F90007047130C06BF12044FF0100C4FF0000CFA
:100FA000130E04BF12020CF1080C130F04BF120140
:100FB0000CF1040C930F04BF92000CF1020CD30F40
:100FC00004BF52000CF1010C11464FF00002A0F1D9
:100FD0001F00A0EB0C00704711F0004F08BF7047D6
:100FE00031F000413FF4D5AF0B0C06BF09044FF0C0
:100FF000100C4FF0000C0B0E04BF09020CF1080C92
:101000000B0F04BF09010CF1040C8B0F04BF890006
:101010000CF1020CCB0F04BF49000CF1010CCCF118
:101020002003A0EB0C0022FA03F302FA0CF241EACF
:10103000030100F10100704720F07F4C80EA0300BB
:1010400023F07F47ACEB070303F57C5300F000402F
:1010500003F1FF032DE980494FEA154B09B44FEA2C
:10106000144325EA0B4E24EA03480FF2042606EB4C
:10107000132749083E785FEA320203FB0667C7F58B
:10108000000707FB06F64FEA54374FEAD64606F14B
:10109000020607FB066CCCF1005C4FEA1C472CEA09
:1010A000074C07FB06F40CFB06F504EB15464FEA6C
:1010B000961634BF00204FF000404FEAD13706FBB0
:1010C00007FC4FEA1C4C0CFB0BF7D21B03FB0CF785
:1010D00061EB07010CFB0EF7B0EB074072EB174218
:1010E0000CFB08F734BFA2EB0742B2EB074261EBFF
:1010F00017414FEA0C444FEA910706FB07FC4FEA01
:101100001C4C0CFB0BF7B0EBC74072EB573203FBE8
:101110000CF734BFA2EBC742B2EBC74261EB5731C9
:101120000CFB0EF7B0EBC70072EB57720CFB08F725
:1011300034BFA2EBC702B2EBC70261EB5771039F4A
:101140004FEA816141EA921104EBCC044FEAD137B6
:101150004FEA826206FB07FC42EA90124FEA806087
:101160004FEA1C4C0CFB0BF7D21B03FB0CF761EB9B
:1011700007010CFB0EF7B0EB074072EB17420CFBBC
:1011800008F734BFA2EB0742B2EB074261EB17410D
:101190004FEA8C554FEA910704EB9C2406FB07FCB1
:1011A0004FEA1C4C0CFB0BF7B0EBC74072EB57320D
:1011B00003FB0CF734BFA2EBC742B2EBC74261EBB3
:1011C00057310CFB0EF7B0EBC70072EB57720CFBFC
:1011D00008F734BFA2EBC702B2EBC70261EB57714D
:1011E00015EB4C254FEA816141EA92114FEA826288
:1011F0004FEAD13742EA901206FB07FC44F10004A3
:101200004FEA80604FEA1C4C0CFB0BF7D21B03FB30
:101210000CF761EB07010CFB0EF7B0EB074072EB2C
:1012200017420CFB08F734BFA2EB0742B2EB0742B0
:1012300061EB174115EB1C154FEA813141EA9241F0
:101240004FEA823242EA90424FEA80304FEA0C760F
:1012500044F1000448EA03434EEA0B484FF0000E05
:10126000B2EB080C71EB030724BF624639464EEB24
:101270000E0E4FF0000B0018524149414BEB0B0B87
:10128000B2EB080C71EB03077BF1000B24BF624645
:1012900039464EEB0E0E4FF0000B001852414941FB
:1012A0004BEB0B0BB2EB080C71EB03077BF1000B64
:1012B00024BF624639464EEB0E0E51EA020718BFB4
:1012C00046F0010616EB0E7655F1000254F10001CE
:1012D00003D5BDE88901BDE80088BDE88901BDE806
:1012E0000048B619524141EB0101A3F101037047D7
:1012F00080807F7E7D7C7B7A797877767675747353
:10130000727171706F6E6E6D6C6C6B6A6A69686811
:10131000676666656464636362616160605F5F5EA7
:101320005E5D5D5C5C5B5B5A5A595958585757561D
:101330005655555554545353525252515150505082
:101340004F4F4F4E4E4D4D4D4C4C4C4B4B4B4A4AD4
:101350004A49494948484847474747464646454518
:101360004544444444434343434242424241414151
:10137000002B9C4630D477002BD01CB54FEA3707A2
:1013800003B44FF010004FF01001BAF1000F06D077
:10139000BCF1000FDCBF40F0080040F008014FF046
:1013A00000000FBCBDE810400BF1010BBBF1010FB9
:1013B00008BF5FEA170722BF12F1010211F1010114
:1013C0004FF0004143F1000300F0004043EA000009
:1013D0007047F9D35708D0E746EA064613F1400FA5
:1013E0004FEA16461FDD13F1200FDFBF16430A46F2
:1013F000002120335B42BED0C3F1200746EA0646F7
:1014000002FA07F74FEA164646EA0706C3F1200735
:1014100022FA03F201FA07F721FA03F14FF0000371
:1014200042EA0702A7E746EA020646EA06464FEA0C
:10143000164646EA0106BCBF46EA0646360C4FF0A1
:1014400000034FF000024FF0000194E72DE9804CBB
:101450009A46934670B491E8380007C831EA400CC8
:1014600048BF34EA430C03D5FFF7E6FDFFF780FFE2
:10147000F0BCBDE8008C2DE9804C9A46934670B4D0
:1014800091E8380007C810F0804F08BF13F0804F74
:1014900003D100F005F8FFF76BFFF0BCBDE8008C4E
:1014A00020F07F4780EA030023F07F4C07EB0C031A
:1014B000A3F57C5300F00040A3F1FE0392F0000F6F
:1014C00000F0B38095F0000F00F077802DE901491E
:1014D0004FEA11404FEA144621EA004800FB06FC9F
:1014E00024EA064708FB06F607FB08F800FB07F7A7
:1014F00018EB06484CEB164C4FEA124B18EB07481A
:101500004FEA15464CEB174022EA0B4E0BFB06FC4C
:1015100025EA06470EFB06F607FB0EFE0BFB07F758
:101520001EEB064E4CEB164C4FF000061EEB074E22
:101530004CEB174B18EB0B0840F1000018EB0E0BAF
:1015400058EB000840F100008F1A4FF000013CBF3B
:10155000C943661B14BFB5EB040C00213CBFC94353
:10156000F61B4FEA17444EEA8E0E27EA04454FEA6F
:101570001C4704FB07622CEA074C05FB07F70CFB32
:1015800005F604FB0CFC16EB074642EB174216EB84
:101590000C4642EB1C421BEB060658EB0202414193
:1015A00046EA9E0601D5BDE80189B619524141EBD4
:1015B0000101A3F10103BDE801894FEA14454FEA97
:1015C000114724EA054621EA074C05FB07F406FB10
:1015D00007F70CFB06F105FB0CFC11EB074144EB94
:1015E00017444FEA124711EB0C4144EB1C4422EA2A
:1015F000074C05FB07F206FB07F70CFB06F605FB9D
:101600000CFC16EB074642EB174216EB0C4642EB7E
:101610001C456A1854F1000148BF7047B619524181
:1016200041EB0101A3F10103704795F0000F37D0A2
:101630004FEA11424FEA144721EA024624EA074CD6
:1016400002FB07F106FB07F70CFB06F402FB0CFCA0
:1016500014EB074441EB17414FEA154714EB0C44D8
:1016600041EB1C4125EA074C02FB07F506FB07F797
:101670000CFB06F602FB0CFC16EB074645EB174588
:1016800016EB0C4645EB1C42121951F1000148BF04
:101690007047B619524141EB0101A3F101037047B4
:1016A0004FEA14454FEA114724EA054621EA074C60
:1016B00005FB07F106FB07F70CFB06F24FF00006EF
:1016C00005FB0CFC12EB074241EB174112EB0C42FD
:1016D00051EB1C4148BF7047921841EB0101A3F147
:1016E000010370470029816802D041F0010101E047
:1016F00021F00101816070470D4910B5884202D187
:10170000012144150AE00B49884202D10121041548
:1017100004E0094988420AD10121CC03204600F0A7
:1017200037FE2046BDE81040002100F031BE10BD5C
:101730000024014000280140003C014001460020F7
:101740008968490700D501207047C06C80B2704796
:101750000246002012680A4200D00120704701466C
:1017600000208968090700D50120704710B542683C
:101770000E4B0C791A400B6842EA04221343436073
:1017800083680B4A1340D1E9024222434C7943EA71
:1017900044031A438260C26A097C22F47002491E23
:1017A000C9B242EA0151C16210BD0000FFFEF0FF64
:1017B000FDF7F1FF70B5072409290AD9C568A1F121
:1017C0000A0606EB4606B440A543B3401D43C56078
:1017D00007E0056901EB4106B440A543B3401D4352
:1017E00005611F23072A09D2446B521E02EB8202B5
:1017F00093409C4391400C43446370BD0D2A09D231
:10180000046BD21F02EB820293409C4391400C4335
:10181000046370BDC46A0D3A02EB820293409C439C
:1018200091400C43C46270BD816841F00801816041
:1018300070470029816802D041F4A00101E021F441
:10184000A00181607047816841F0040181607047A8
:1018500070B5012186B0480200F08EFD0121042000
:1018600000F08AFD01214FF4027000F085FD4FF475
:10187000004000F06BFD00248DF817400125ADF805
:10188000145005A91F4800F08DFAADF8145005A9B1
:101890001D4800F087FA1D4E3046FFF72DFF4FF42C
:1018A0006020CDE902048DF8044000948DF80540D5
:1018B00002248DF8104069463046FFF757FF002399
:1018C0002A4619463046FFF775FF002322460821B5
:1018D0003046FFF76FFF01213046FFF703FF304628
:1018E000FFF7A2FF3046FFF73AFF0028FAD1304653
:1018F000FFF7A9FF3046FFF721FF0028FAD106B015
:1019000070BD000000080140000C014000240140AF
:10191000FEE7000070B5002400F024F8104D04E04C
:10192000641CE4B2012001F01BF8D5F8100110B1DD
:10193000642CF5D30DE0642C0BD2002404E0641C6D
:10194000E4B2012001F00CF8D5F8100118B1642CB4
:1019500004D3012070BD642CF1D3FAE7002070BDE0
:101960000000214208B50121042000F005FD1020EF
:10197000ADF8000004208DF803006946014800F02E
:1019800011FA08BD0008014008B50121042000F04B
:10199000F3FC1020ADF800008DF8030003208DF853
:1019A00002006946014800F0FDF908BD0008014049
:1019B00038B50121082000F0DFFC1020ADF8000050
:1019C0008DF803000320084C8DF80200694620467C
:1019D00000F0E8F91021204600F062FA00F062F809
:1019E000FFF798FF38BD00000008014070B50024E3
:1019F000104D04E0641CE4B2012000F0B1FFD5F802
:101A0000100108B1642CF5D3002404E0641CE4B296
:101A1000012000F0A5FFD5F8100108B9642CF5D31A
:101A2000282000F09DFFD5F81001002800D00120EB
:101A300070BD00000000214270B500200446400641
:101A4000050EFFF7D3FF641C2843E4B2082CF6D33D
:101A500070BD2DE9FC410D46064600F023F8FFF766
:101A600059FF10B10120BDE8FC8100246F46FFF74B
:101A7000E3FF3855641CE4B2052CF8D39DF8001040
:101A80009DF801009DF803300A189DF802000344F8
:101A90001A449DF804309A4201D129703070002018
:101AA000E1E7000010B5FFF76FFF084C0020C4F815
:101AB0009001142004F5C87400F038FF0120206064
:101AC000BDE810401E2000F04BBF00000000214286
:101AD00070B5002400F0ECF8104D04E0641CE4B292
:101AE000012000F03DFFD5F8140110B1C82CF5D34A
:101AF0000DE0C82C0BD2002404E0641CE4B20120E9
:101B000000F02EFFD5F8140118B1F02C04D30120F9
:101B100070BDF02CF1D3FAE7002070BD0000214227
:101B200070B500F08FF800F077F8FFF7D1FFCC2008
:101B300000F096F8BE2000F093F800F05DF804463F
:101B400000F05AF8072805D9C043E143C0B2CCB22F
:101B5000002500E0012504EB002000B203F0ADFBFE
:101B60000022054B03F0D4FB03F078FB00B2002DFC
:101B700001D1404200B270BD0000E43F38B5012100
:101B8000042000F0F9FB2020ADF8000010208DF8B3
:101B900003000320074C8DF802006946204600F040
:101BA00001F92021204600F07BF900F035F8FFF71D
:101BB0008FFF38BD0008014010B500F08BF80D4CC8
:101BC0000020C4F89401022004F5CA7400F0C8FE95
:101BD0000120206000F06CF80C2000F0C1FE54F8E9
:101BE000800C08B1012400E00024322000F0B8FE8F
:101BF000204610BD0000214270B500255FF00104B1
:101C0000FFF7DAFFC001641C40EA5500E4B2C5B238
:101C1000082CF5D9284670BD10B500F05BF8084CCB
:101C20000020C4F8940140F2EE2004F5CA7400F0DC
:101C300097FE01202060BDE810400F2000F090BE0C
:101C40000000214210B5FFF7E7FFFFF741FFCC206E
:101C500000F006F8BDE81040442000F001B8000094
:101C60002DE9F041064600F035F801250F4C00271C
:101C7000A84600BF16F0010F4FEA5606C4F894714B
:101C800006D0022000F06CFEC4F894813C2005E0F0
:101C90003C2000F065FEC4F89481022000F060FE54
:101CA0006D1CEDB2082DE5D9BDE8F08100002142A0
:101CB00008B50121042000F05FFB2020ADF80000F2
:101CC00004208DF803006946014800F06BF808BD58
:101CD0000008014008B50121042000F04DFB202040
:101CE000ADF8000010208DF8030003208DF80200ED
:101CF0006946024800F056F808BD0000000801409F
:101D0000704700002DE9F0412149072001F092FEC3
:101D10001F48204B017842788907890B41EA022449
:101D20008178A0F118020C43117843F82140C4785F
:101D30000579A407A40B44EA05254079A3F5C874E6
:101D4000054344F82150491CC8B21070642819D3C7
:101D5000002003F5166503F5C87100BF05EB800789
:101D600053F82060C7F8406654F8206001EB800704
:101D7000401CC0B2C7F840666428EFD30020107042
:101D800001205070BDE8F041202000F005B80000AF
:101D900098000020280600200149086070470000D4
:101DA00014040140F0B5CA78002502F00F03D206F2
:101DB00001D58A7813430A784FF00F0E12F0FF0F07
:101DC0004FF001021CD004680F8802FA05F6374074
:101DD000B74211D14FEA850C0EFA0CF724EA070737
:101DE00003FA0CF43C43CF78282F02D0482F02D0BE
:101DF00002E0466100E006616D1C082DE4D304603A
:101E00000C88FF2C1ED944685FF0000606F1080715
:101E100002FA07F50F882F40AF420FD14FEA860C28
:101E20000EFA0CF7BC4303FA0CF73C43CF78282F8B
:101E300000D14561CF78482F00D10561761C082E6E
:101E4000E4D34460F0BD0000F0B5144C002801DA82
:101E5000E36900E06368420D120185B2C0F30157E7
:101E60009540C0F30346032F05D0C2020AD50322D2
:101E7000B240934307E023F07062636823F070631D
:101E8000636002E0AB4343F0706201B12A43002873
:101E900001DAE261F0BD6260F0BD000000000140C7
:101EA000016170472DE9F0473F49404F0E4691F8D8
:101EB00001C0B378F5791C465B1C0022B6794FF05F
:101EC000010907F10E0ADBB2BCF10A0F0FD2DFE8FD
:101ED0000CF00513161C292C33384D5A344D2C5D4B
:101EE000844203D18B70032B03D000D98A70BDE8E4
:101EF000F08781F80190FAE74FF0020013E02C28F8
:101F00000AD081F8009003224A700AF804008B700E
:101F10000C2BECD104200DE00A704A703A708AF85C
:101F20000020E4E705204870E0E738558B700D2B62
:101F3000DDD106204870DAE7072048708A708A7180
:101F4000D5E706EB860400EB44003038C0B2887158
:101F50008B70022BCBD118230830B0FBF3F403FBBA
:101F600014008871CA718A700820E3E705EB8504C4
:101F700000EB44003038C8718B70022BB7D10A7265
:101F80008A700920D6E70C7A04EB840400EB440045
:101F90003038C0B208728B70022BA8D18A704A7098
:101FA000CE700D714871A2E7740000207C040020FF
:101FB0006A61000810B518B1082801D0002010BDD2
:101FC0000A4C0146002301222046FFF7F3FB0121C2
:101FD0002046FFF72EFC02212046FFF7B9FB002820
:101FE000F9D02046BDE81040FFF7AFBB0024014008
:101FF000FEE7000070B5094C0025C4F8985104F5BF
:10200000CC7400F027FA6560022000F0A9FC0120E2
:102010002060022000F0A4FC256070BD00802142F9
:1020200070B5094C0025C4F8985104F5CC7400F043
:1020300011FA01266660022000F092FC2660022060
:1020400000F08EFC256070BD008021422DE9F04734
:102050008146002400F0F0F90025124E2F464FF083
:10206000010800BFC6F89871022000F079FCC6F89C
:1020700098816006040ED6F81C0108B1641CE4B215
:10208000012000F06DFC6D1CEDB2082DEAD3B9F112
:10209000000F04D0FFF7AEFF2046BDE8F087FFF742
:1020A000BFFFF9E7008021422DE9F041064600F02C
:1020B000D1F90F4C0027C4F898713D464FF0010844
:1020C000F009C4F89C017006060E022000F048FCDE
:1020D000C4F89881022000F043FCC4F898710220F3
:1020E00000F03EFC6D1CEDB2082DE9D3BDE8F08197
:1020F0000080214270B500F0ADF9094C0120C4F810
:102100009C01C4F89801042004F5CC7400F028FC6C
:1021100000256560042000F023FC256070BD0000F0
:102120000080214210B500F095F9094C0020C4F858
:102130009801C4F89C01042004F5CC7400F010FC54
:10214000012020606060BDE81040042000F008BC61
:102150000080214270B5002400F06EF90D4D01267B
:10216000C5F89C61304600F0FBFBC5F89861012082
:1021700000F0F6FB07E0641CE4B2FA2C03D9FFF789
:10218000D1FF012070BDD5F81C010028F3D1C5F89E
:10219000980170BD0080214202494CF6CC40086095
:1021A000704700000030004002494AF6AA2008604B
:1021B000704700000030004001498860704700000F
:1021C00000300040014908607047000000300040C6
:1021D0002DE9F8430121042000F0CEF80121082068
:1021E00000F0CAF80121102000F0C6F801210846CD
:1021F00000F0C2F801212F48FFF726FE2E4F4FF4C2
:10220000005421463846FFF74BFEDFF8B09048F205
:10221000C01631464846FFF743FEDFF8A480182178
:102220004046FFF73DFEADF8004010208DF803005A
:1022300003248DF8024069463846FFF7B3FDA0033A
:10224000ADF8000048258DF803508DF8024069462E
:102250003846FFF7A7FDADF8006014268DF803603F
:102260008DF8024069464846FFF79CFD1820ADF8FE
:1022700000008DF803608DF8024069464046FFF784
:1022800091FD4FF20200ADF800008DF803508DF87B
:10229000024069464046FFF785FD0220ADF8000088
:1022A0008DF803508DF8024069464846FFF77AFDE5
:1022B000BDE8F88300023000001001400008014032
:1022C000000C0140FEE7704770B50F23C478017819
:1022D0000122F4B1144C2468457804F4E064C4F598
:1022E000E064240AC4F10406E3408478B5401C404D
:1022F0002C4301F1E021230181F80034007800F043
:102300001F018A404009800000F1E020C0F8002150
:1023100070BD01F01F0082404809800000F1E020FC
:10232000C0F8802170BD00000CED00E008B5002071
:10233000009003208DF8020069460248FFF732FD45
:1023400008BD00000008014070470000034A5168C2
:1023500021F44041014351607047000000100240E9
:10236000044A0029D16901D0014300E08143D161D1
:102370007047000000100240044A0029916901D012
:10238000014300E08143916170470000001002406A
:10239000044A0029D16801D0014300E08143D160A3
:1023A000704700000010024030B51F494A6812F023
:1023B0000C031E4A03D0042B01D0082B21D002604D
:1023C0004A680F231A4C03EA1212A35C0268DA402F
:1023D00042604B68072505EA1323E35C22FA03F306
:1023E00083604B6805EAD323E35CDA40C260496846
:1023F000032303EA9131231F595CB2FBF1F1016120
:1024000030BD4A684B6802F470124FF0020413F4B6
:10241000803F04EB924202D04B689B0301D5054BF1
:1024200000E0024B5A43CAE70010024000127A0053
:10243000AC00002000093D0008B58020ADF8000088
:1024400004208DF8030069460148FFF7ABFC08BD86
:10245000000C014008B58020ADF8000014208DF874
:10246000030003208DF8020069460248FFF79AFC3A
:1024700008BD0000000C0140704700000CB50021B1
:10248000264801910091026842F4803202604FF4C4
:10249000A063026802F400320092019A521C019279
:1024A000009A12B9019A9A42F3D10268920333D585
:1024B000012100911A490A6842F010020A600A6874
:1024C00022F003020A600A6842F002020A604168D0
:1024D000416041684160416841F480614160416808
:1024E00021F47C114160416841F4E81141600168C8
:1024F00041F08071016001688901FCD5416821F0DB
:1025000003014160416841F0020141604168C1F34B
:1025100081010229FAD10CBD00910CBD00100240CE
:10252000002002404FF0E0210428086903D020F089
:1025300004000861704740F00400FAE770470000AB
:102540000F4810B5016841F00101016041680D4A72
:102550001140416001680C4A11400160016821F49A
:1025600080210160416821F4FE0141604FF41F01A8
:102570008160FFF783FF05494FF00060086010BDE0
:10258000001002400000FFF8FFFFF6FE08ED00E03B
:1025900010B5074C0121204600F04DF8012801D16B
:1025A00001F023FE2046BDE81040012100F036B8BE
:1025B000002C014010B501218C07204600F03BF8AB
:1025C000012801D101F012FE2046BDE81040012192
:1025D00000F024B810B5074C0121204600F02BF87C
:1025E000012801D101F004FE2046BDE81040012180
:1025F00000F014B80004004010B5074C012120463B
:1026000000F019F8012801D101F03AFE2046BDE89A
:102610001040012100F002B800080040C9430182C7
:1026200070470029018802D041F0010101E021F04A
:1026300001010180704702460020138A92890B42F3
:1026400002EA010202D0002A00D001207047002ACD
:10265000828901D00A4300E08A43828170470000EA
:1026600030B502881B4B1C4C98420DD0A0420BD0B9
:10267000B0F1804F08D0194DA84205D0184DA8429E
:1026800002D0184DA84203D122F070054A882A438F
:10269000154DA84206D0154DA84203D022F440752E
:1026A000CA882A4302808A8882850A8802859842DD
:1026B0000AD0A04208D00E4A904205D00D4A90425E
:1026C00002D00D4A904201D1097A0186012181820E
:1026D00030BD0000002C01400034014000040040E7
:1026E00000080040000C00400010004000140040B2
:1026F00000400140004401400048014010B5074C33
:1027000040F22551204600F039F8002805D0204637
:1027100000F0C2F8C0B202F0BBFA10BD00380140B0
:1027200010B5074C40F22551204600F027F800284C
:1027300005D0204600F0B0F8C0B202F0ABFA10BDF0
:102740000044004010B5074C40F22551204600F0EF
:1027500015F8002805D0204600F09EF8C0B202F01F
:1027600003FB10BD004800400029818902D041F4DC
:10277000005101E021F400518181704730B501F032
:102780001F0201240025C1F3421304FA02F2012BB7
:102790000FD0022B0FD0838A4FEA112100881342F9
:1027A00004FA01F400EA040001D000B10125284632
:1027B00030BD8389F0E7038AEEE710B5C1F3421319
:1027C00001F01F040121A140012B07D0022B07D0EB
:1027D0001430002A026805D00A4304E00C30F8E700
:1027E0001030F6E78A43026010BD000030B50446A1
:1027F000008A85B00D464CF6FF710840E988014318
:102800002182A1894EF6F3100140A8882A8910433D
:102810006A890A431043A081A08A4FF6FF4108400D
:10282000A9890143A1826846FFF7BEFD1948844289
:1028300001D1039800E00298A189090400EBC001CE
:1028400001EB0010296801D5490000E08900B0FBC8
:10285000F1F06422B0FBF2F109010B096FF01805E9
:102860006B4300EB8300A3891D044FF0320306D5B0
:1028700003EBC000B0FBF2F000F0070005E003EB53
:102880000010B0FBF2F000F00F000843208105B00B
:1028900030BD0000003801408088C0F30800704758
:1028A00005E003885B06FCD511F8013B8380521ECE
:1028B00092B2F6D27047FEE7490050EAC12018BF35
:1028C00004204A0D18BF40F0010040F2FF72B2EB45
:1028D000515F08BF40F00200012808BF0520704783
:1028E00030380A2801D20120704700207047704715
:1028F00010B56FF00400FFF715FE0948094900689C
:10290000B0FBF1F0C1B2084801EB41020170C2EB2B
:10291000C1114FF6FF7202EAC101418010BD0000F3
:102920006000002000127A009E0000200B494988B8
:1029300048434FF0E021486100228A61086940F075
:10294000010008610869C30701D0C003FAD508690E
:1029500020F0010008618A61704700009E0000209D
:102960000B49097848434FF0E021486100228A6111
:10297000086940F0010008610869C30701D0C0037D
:10298000FAD5086920F0010008618A6170470000EB
:102990009E00002004490A885206FCD5024AC1B2B2
:1029A000121D118070470000003801402DE9FC5FC6
:1029B0009D49D1F83C01D1F83821C0B25FEA000B43
:1029C00002F0FF09D1F8342102F0FF08D1F83021DC
:1029D000D2B20092D1F80411CFB29449D1F80411C7
:1029E000934DCEB24FF0000AA5F14E040AD12878DB
:1029F00040B12178A81D405C207018B984F801A06E
:102A000084F802A0B9F1000F77D16878002874D05B
:102A1000207850B101280CD0022812D0032819D0F8
:102A2000042821D005282AD03FE06078401E60703D
:102A300063E0206A401C206202285EDD02202062E2
:102A40005BE0E079401DC0B2E071B42855D9B420F4
:102A5000E07152E0207A401DC1B22172E079401F3E
:102A600081424ADD207248E04FF07E51606A02F0F8
:102A70006FFE7049606288423FDD61623DE04FF069
:102A80007E51A06A02F064FEA06201904FF07E5178
:102A9000606A02F093FF019902F0E0FE05D24FF068
:102AA0007E51606A02F08AFFA0622078062808D072
:102AB00007280AD008280CD0092811D00A2816D0D7
:102AC0001BE0607A401C607217E0A07A401CA07284
:102AD00013E04FF07E51E06A02F03AFEE0620CE053
:102AE0004FF07E51206B02F033FE206305E04FF083
:102AF0007E51606B02F02CFE6063B8F1000F76D15E
:102B0000A87838B3207840B101280AD002280FD025
:102B1000032817D004281ED033E06078401C607072
:102B200065E0206A401E206261D5C4F820A05EE006
:102B3000E079401FC1B2E171207A401D814256D236
:102B4000E07154E0207A401FC0B220720A284ED2B1
:102B50000A2020724BE04FF07E51606A02F02EFF97
:102B6000606201904FF07E51A06A02F0F1FD019980
:102B700002F0F3FE05D24FF07E51A06A02F0E8FDAC
:102B80006062207805280AD0062814D0072816D0BD
:102B9000082818D009281DD00A2822D027E04FF095
:102BA0007E51A06A02F00AFFA06210F1FF4F1ED30F
:102BB000C4F828A01BE0607A401E607217E0A07A7B
:102BC000401EA07213E04FF07E51E06A02F0F6FE64
:102BD000E0620CE04FF07E51206B02F0EFFE2063CC
:102BE00005E04FF07E51606B02F0E8FE60631FB9B4
:102BF000287908B10120E0724EB9687938B1A08A0D
:102C000028B9A069401CA0614FF4FA70A08285F831
:102C100000B085F8019085F802800098E8702F7167
:102C20006E71BDE8FC9F000000802142000021423F
:102C30004E00002000001643C8B0FFF759FEFFF712
:102C4000C7FA15A801F0C4FAFE4915A801F094FCD2
:102C5000FEF7AEFEFEF792FFFEF7FAFD4FF41654B4
:102C6000204601F01BFF204601F06CFF4FF4E130DD
:102C700001F0BAFF4FF4FA70FFF758FEF248FDF783
:102C8000BDFA0320FFF79EFA4FF4FA60FFF794FABB
:102C9000FFF782FA472140F2E73001F0C3FAEB4D2B
:102CA00005F140004690203045904038449005F5AD
:102CB000B0703D9020303C9005F59C60439005F548
:102CC00048703B9005F5A060429005F5F07041908A
:102CD0002030409040383A9020383F9005F56070A1
:102CE0003E9005F5087005F5A469102405F5946873
:102CF00005F5986705F1800B0B9015A801F0C1FA56
:102D000000F0D6FED24E306C02F0F6FCDFF844A3A1
:102D1000D14B524602F0FCFA02F06EF83064706C4F
:102D200002F0EAFC5246CC4B02F0F2FA02F064F8F0
:102D300070640020FFF73EF902F0D6FA4FEA4A022B
:102D4000C64B02F033F94FEA4A02C54B02F0E0FAF3
:102D500082460091306C02F0CFFC5246009B02F09C
:102D60007DF802F049F830640820FFF723F902F0FB
:102D7000BBFABC4AB94B02F019F90022BA4B02F077
:102D8000C5FBB84AB64B02F0C3FA00908A46706C95
:102D900002F0B2FC5346009A02F060F802F02CF800
:102DA0007064B24ED6F8300110B90020C6F88C011C
:102DB000DFF89CA29AF80000F0B3AD480022CDE9FC
:102DC00000401023114615A801F054FBA848102319
:102DD0002030CDE900400022194615A801F04AFB39
:102DE00046981023CDE900400022202115A801F0CB
:102DF00041FB45981023CDE900400022302115A861
:102E000001F038FB9AF800209AA19B48FDF702FADE
:102E1000994B1022402115A801F024FB974901206D
:102E2000C1F8A001C1F89C01C1F89801C1F8BC012A
:102E3000D6F8301119B100E009E0C6F88C01C6F8E7
:102E4000900100BF9AF8000001287CD0C7E2002260
:102E50001023114615A8CDE9004501F00BFB44985D
:102E60001023CDE900400022194615A801F002FB0D
:102E700046981023CDE900400022202115A801F03A
:102E8000F9FA45981023CDE900400022302115A819
:102E900001F0F0FA9AF8012079A17748521CFDF769
:102EA000B9F9754B1022402115A801F0DBFA9AF808
:102EB0000100B8B101287CD002287BD003287AD049
:102EC00000208AF80100DAF820105046002973D05B
:102ED0000129B7D16C48D0F83811C6F88C11D0F858
:102EE0003C01ACE7CDE9004B10231A46002115A8A0
:102EF00001F0C0FA55481023C030CDE900400290DF
:102F00001A46194615A801F0B5FA9AF80D205FA1E6
:102F10005948FDF77FF92022574B114615A801F0BB
:102F2000A1FA4A481023A030CDE900402022002118
:102F300015A801F09FFA02981023CDE90040202245
:102F4000194615A800E018E201F094FA9AF80E204C
:102F50004EA14948FDF75EF9474B3022202115A8C4
:102F600001F080FA424810238030CDE90040302241
:102F7000002115A801F07EFA3B981023CDE900400E
:102F80003022194615A801F075FACDE9004B10233F
:102F90003022202115A801F06DFA02983022CDE9E7
:102FA00000401023114615A801F064FADAF83C003D
:102FB00003E024E0D3E044E16BE102F09DFB024634
:102FC0000B4634A12C48FDF725F940222A4B114627
:102FD00015A801F047FA31481023CDE90040182226
:102FE000582115A801F046FA2C4810232030CDE9CD
:102FF00000401822682115A801F03CFA63E71C483C
:103000001023E030CDE900401A46194615A801F01A
:1030100031FA3E981023CDE900401A46202115A828
:1030200001F028FA1E481023CDE900401A4630214D
:1030300015A801F01FFADAF8440002F05DFB024621
:103040000B462FE0836200088C730008AA5A000820
:1030500000000020CDCCCCCCCCCCEC3F99794440C6
:103060009999B93F9A999999000059400080214255
:103070002A5D00083A256400BC00002000002142BF
:103080003A20256400000000000022423A25326404
:10309000000000003A25332E31660000CA5B0008AC
:1030A0004A5E0008FCA1FE48FDF7B4F8FC4B202264
:1030B000402115A801F0D6F9FA481023CDE90040C7
:1030C0002022194615A801F0D5F9F6482022203013
:1030D000CDE900401023114615A801F0CBF9AFF25D
:1030E0006C01EF48DAF81820FDF794F8EC4B302229
:1030F000402115A801F0B6F9EB481023CDE90040B6
:103100003022002115A801F0B5F93A981023CDE935
:1031100000403022194615A801F0ACF9E34810230D
:10312000CDE900403022202115A801F0A3F9DE48A6
:1031300030222030CDE900401023114615A801F0BF
:1031400099F9DAF8400002F0D7FA02460B46D2A10C
:10315000D348FDF75FF84022D14B114695E04198E6
:103160001023CDE900401A46002115A801F082F98C
:103170000B981023CDE900401A46194615A801F016
:1031800079F97622CAA1C648FDF744F82022C44B3B
:10319000114615A801F066F940981023CDE90040CA
:1031A0002022002115A801F065F90B981023CDE924
:1031B00000402022194615A801F05CF97322BCA139
:1031C000B748FDF727F8B64B3022202115A801F0AB
:1031D00049F93D981023CDE900403022002115A87F
:1031E00001F048F93C981023CDE9004030221946FF
:1031F00015A801F03FF96322ADA1A948FDF70AF82F
:10320000A74B4022202115A801F02CF93F9810234C
:10321000CDE900401822582115A801F02BF93A9861
:103220001023CDE900401822682115A801F022F9E9
:10323000A14AA2A19A48FCF7EDFF3822984B5821E9
:1032400023E09F48A1A1007800909E4803789E4803
:1032500002789348FCF7DEFF914B2022002115A84D
:1032600001F000F99D4A9EA18D48FCF7D3FF8C4BDD
:103270003022002115A801F0F5F89A4A98A1884853
:10328000FCF7C8FF864B4022002115A801F0EAF8A0
:1032900019E68179FF290BD051B1C279914202D848
:1032A000027A914204D290490022C1F8A02103E0A1
:1032B0008D4A0121C2F8A011416ADAF83C0002F0FF
:1032C0004CFB06D3DAF82810DAF83C0002F0C6FA14
:1032D00004D285480021C0F8BC1103E082490120D6
:1032E000C1F8BC019AF80400FF2804D018B19AF87C
:1032F0000910884208D89AF80510FF2909D041B171
:103300009AF80A00814204D277480021C0F89C1143
:1033100003E075490120C1F89C017448006802F07F
:1033200085FADAF82C1002F099FA04D26E480021DE
:10333000C0F8981103E06C490120C1F89801DAF84F
:103340003010DAF8400002F008FB01D2002000E063
:103350000120C6F89001DAF83410DAF8440002F0DF
:103360007DFA01D2002005E0D6F8300100283FF4B4
:1033700069AD0120C6F88C0164E5102320220021EC
:1033800015A8CDE9004501F075F844981023CDE962
:1033900000402022194615A801F06CF8434820226D
:1033A0002030CDE900401023114615A801F062F845
:1033B0003E4810234030CDE900402022302115A89E
:1033C00001F058F8AFF254313548DAF82020FCF714
:1033D00021FF334B3022402115A801F043F89AF821
:1033E000000002282FD13D981023CDE90040202273
:1033F000002115A801F03EF83C981023CDE90040CB
:103400002022194615A801F035F843982022CDE96D
:1034100000401023114615A801F02CF8CDE9004911
:1034200010232022302115A801F024F89AF8072053
:10343000AFF2C0311A48FCF7EDFE194B30224021A3
:1034400015A801F00FF89AF8000003285DD13D9807
:103450001023CDE900402022002115A801F00AF830
:103460003C981023CDE900402022194615A801F010
:1034700001F842982022CDE900401023114615A8FA
:1034800000F0F8FFCDE9004910232022302115A8D3
:1034900000F0F0FF2CE000003A252E31660000001D
:1034A000BC000020EA5F0008EA5C0008EA5E000851
:1034B0003A253364000000008C00002025730000D2
:1034C0007900002078000020770000202530326449
:1034D0003A253032643A2530326420007C040020E2
:1034E000257320008A04002000002142940000205F
:1034F0009AF80820AFF28441FE48FCF78BFEFD4BA2
:103500003022402115A800F0ADFF9AF800000428F1
:1035100031D13B981023CDE900402022002115A88D
:1035200000F0A8FFCDE9004B10232022194615A872
:1035300000F0A0FF43982022CDE90040102311465F
:1035400015A800F097FFCDE9004910232022302173
:1035500015A800F08FFFDAF8240002F0CDF802463B
:103560000B46E5A1E348FCF755FEE24B3022402133
:1035700015A800F077FF9AF80000052831D13B9894
:103580001023CDE900402022002115A800F072FF91
:10359000CDE9004B10232022194615A800F06AFF40
:1035A00042982022CDE900401023114615A800F0D2
:1035B00061FFCDE9004910232022302115A800F039
:1035C00059FFDAF8280002F097F802460B46CAA124
:1035D000C848FCF71FFEC74B3022402115A800F059
:1035E00041FF9AF8000006282ED141981023CDE91A
:1035F00000402022002115A800F03CFF0B9810236A
:10360000CDE900402022194615A800F033FFCDE98E
:10361000004820221023114615A800F02BFFCDE909
:10362000004710232022302115A800F023FF9AF82C
:103630000920AFF2C051AF48FCF7ECFDAD4B302292
:10364000402115A800F00EFF9AF8000007282ED19F
:1036500040981023CDE900402022002115A800F059
:1036600009FF0B981023CDE900402022194615A828
:1036700000F000FFCDE9004820221023114615A8D4
:1036800000F0F8FECDE9004710232022302115A8D4
:1036900000F0F0FE9AF80A20AFF228619548FCF796
:1036A000B9FD944B3022402115A800F0DBFE9AF8BA
:1036B0000000082831D13F981023CDE90040202296
:1036C000002115A800F0D6FE3A981023CDE900405D
:1036D0002022194615A800F0CDFECDE90048202291
:1036E0001023114615A800F0C5FECDE900471023B0
:1036F0002022302115A800F0BDFEDAF82C0001F0E0
:10370000FBFF02460B467CA17A48FCF783FD794B10
:103710003022402115A800F0A5FE9AF800000928E3
:1037200032D177481023CDE900402022002115A88E
:1037300000F0A0FE724810232030CDE90040202286
:10374000194615A800F096FECDE900482022102366
:10375000114615A800F08EFECDE900471023202267
:10376000302115A800F086FEDAF8300001F0C4FF21
:1037700002460B4660A15F48FCF74CFD5D4B3022D2
:10378000402115A800F06EFE9AF800000A2832D1F8
:103790005B4810238038CDE900402022002115A885
:1037A00000F068FE3E981023CDE900402022194623
:1037B00015A800F05FFECDE9004820221023114635
:1037C00015A800F057FECDE9004710232022302134
:1037D00015A800F04FFEDAF8340001F08DFF024624
:1037E0000B4645A14348FCF715FD424B30224021D2
:1037F00015A800F037FE9AF80300C8280DD9BAF8CA
:10380000101041F29412914207D200218AF803105D
:1038100006223C493C48FFF743F8BAF8101041F241
:103820008830814215D90020AAF8100072B63549B7
:103830003A39481EFEF70DF9FEF772F901F03DFD29
:10384000324A334B01F064FD01F0D6FACAF83C006D
:1038500062B6BAF81200B0F5FA5F74D90020AAF87F
:103860001200DAF8400001F047FFCDE90201DAF872
:10387000440001F041FFCDE90001DAF83C0001F01D
:103880003BFF84468E46DAF82000D6F8901171B3DB
:103890005FF00002D6F88C1151B300231D49D1F816
:1038A000BC1131B35FF00001CDE91320CDE9111354
:1038B000D6F8300100B101201090DDE90201CDE918
:1038C0000E01DDE90001CDE90C019AF80E209AF80D
:1038D0000D30DAF81810CDF818C0CDE90921CDE97E
:1038E00007E30D490D4A50460978127818E030E098
:1038F00031E032E0BC0000203A252E3066000000A6
:103900006A5E000848000020004800409A99999992
:103910009999B93F000021427900002078000020E9
:103920002A4E2B4B3678CDE904212B49CDE90236BE
:10393000284A0968CDE90012437902799AF80610FD
:103940002648FCF75BFC9AF80B005646012806D087
:1039500015E001229EE70123A0E70121A4E7022050
:10396000F07242F6E060F06100221D49B07B00F089
:10397000C5FB1B4900224031B06900F0BFFBF06974
:10398000E0B9F07A022819D100201549F0720246F8
:103990008031B07900F0B2FB0F4811490022C031EC
:1039A000006800F0ABFB00220E49307900F0A6FB66
:1039B0000C4900224031707900F0A0FB15A800F0FE
:1039C000C4FDFEF7F1FBFFF798B900007700002077
:1039D0008A0400207C04002094000020F473000876
:1039E000FC000020FC01002010B50446FEF782FB1D
:1039F000AE20FEF759FBFEF7ADFB68B92046FEF797
:103A000053FBFEF7A7FB38B9FEF774FBAF20FEF7B8
:103A10004BFBFEF79FFB18B1FEF784FB002010BDA7
:103A20000020FEF713FB0446FEF7FAFAFEF77AFBD6
:103A3000204610BD70B505460C460020FFF7D4FFA8
:103A40000120FFF7D1FFFEF755FBAE20FEF72CFB60
:103A5000FEF780FB38BB2846FEF726FBFEF77AFB15
:103A600008BBFEF747FBAF20FEF71EFBFEF772FB1D
:103A7000C8B90120FEF7EAFA20700120FEF7E6FA45
:103A800060700120FEF7E2FAA0700120FEF7DEFA76
:103A9000E0700120FEF7DAFA20710020FEF7D6FA76
:103AA0006071FEF73FFBBDE87040FEF73BBB0000D6
:103AB0002DE9F043414C002687B0607800287AD089
:103AC0000025657006AA05A904A88DE807003C4AF0
:103AD00003ABA2F5FA60616800F08EF838484FF445
:103AE000C872A0F5FA6100BF00EB8603D3F89031ED
:103AF00040F8263001EB8603D3F8903141F82630A8
:103B0000761CB6B29642EFD32C4825709DF818105B
:103B100008300A226E264FF064096F274FF07408B0
:103B2000E1B105991E2919DDB42917DA91FBF9F3E2
:103B300093FBF2FC02FB1C3330332161037091FBD9
:103B4000F2F393FBF2FC02FB1C333033437091FB26
:103B5000F2F302FB13113031817003E006704770FD
:103B600080F80280C57015499DF810000C31E8B14D
:103B7000039800281ADD642818DC90FBF9F36061D3
:103B800093FBF2F402FB143330330B7090FBF2F32F
:103B900093FBF2F402FB143330334B7090FBF2F3DF
:103BA00002FB13003030887004E004E00E704F70A8
:103BB00081F80280CD7007B0BDE8F083800000205E
:103BC000880F00202DE9F8418046DDE907060090C6
:103BD00017460C46099D404600F0ECF933463A463C
:103BE0002146404600F01CFA2068A84200DB284627
:103BF0002060BDE8F88100002DE9FF4FBFB00E4600
:103C000000211C4608464C9D04E03F9A52F82020B3
:103C1000401C1144B042F8DBB1FBF6F20020E04951
:103C200006E03F9B53F820309B1A41F82030401C9F
:103C3000B042F6DB00204FF4F87C00BF01EB8002BD
:103C400051F820305768E3463B44D2E902723A44C7
:103C50001A44D31702EB9372921041F82020401CB3
:103C60005845EBDBCF4A00204FF4F77301EB800798
:103C700051F820C07F688946A7EB0C0742F82070F6
:103C8000401C9842F2DD002002EB800752F8201021
:103C90007F689A46394401EBD171491042F82010EF
:103CA000401C5045F0DBC04F0020964600230146E3
:103CB000421D08E0A1EB00085EF821C037F818802B
:103CC000491C0CFB18339142F4DB40F27A4193FB20
:103CD000F1F14EF82010401C7346B0F5F47FE5DD9D
:103CE000002210464FEA0A0753F82010002900DC92
:103CF0004942401C0A445045F6DD40F2EF1392FB66
:103D0000F3F0052208218DE80700A64A3DA912A874
:103D1000FFF758FF00223D9B12A89646022B1ADBA4
:103D2000012109E000EB810C50F821705CF804CC13
:103D3000491CA7EB0C073A449942F3DB5B1E92FB4C
:103D4000F3F141F2707292FBF1F24D990A604E9AD2
:103D50000121117005E04D9A944911604E9A82F844
:103D600000E000213D9F06E050F8213024AA9B1C72
:103D700042F82130491CB942F6DB0020C8460BE06E
:103D80003F9951F8201048F82010419951F820200F
:103D9000874941F82020401CB042F1DB0022134645
:103DA00028E000BF24A84FF0010950F823004FF08D
:103DB0008076411D51451CDCA0F1050CBCF1000FC3
:103DC00017DD401F0FE000BF58F820C0B44509DAE6
:103DD000B9F1000F01D04FF0000966460DF10C0C4F
:103DE0004CF82300401C8842EEDBB9F1000F00D1F3
:103DF000521C5B1CBB42D5DB022A06DA6B482060F2
:103E000085F800E043B0BDE8F08FDFF8A4C10020E2
:103E100008EB800158F820304E68E1463344D1E980
:103E2000026131441944CB1701EB9371891048F8B2
:103E300020100CEB80035CF820605F683E44D3E9FF
:103E400002733B443344DE1703EB96739B104CF82C
:103E50002030401C5845DBDB00200DF1D40B3E9098
:103E600000234BF82030401C0528F9DB00204FF4DC
:103E7000FA7309E003A951F82010994203DD4B4879
:103E8000206000208AE0401C9042F3DB0023A2F176
:103E9000010A61E003A800EB830650F823E076688E
:103EA0004FF07F42A6EB0E0011463B900A2852DDF0
:103EB0007046CC460DE000BF58F820708F4201DDFF
:103EC00039463C905CF82070974201DD3A463390C9
:103ED000401C8642F0DC59F826C059F82E000290AA
:103EE000ACEB0000DDF8CCC0ACEB0E0778433B9F99
:103EF00090FBF7F7029807EB000C339F59F82770F7
:103F0000A7EB0C07219758F8260058F82E60DDF82B
:103F1000F0C0801BACEB0E0778433B9F90FBF7F0A3
:103F20003044339E219F58F826604F43301A504347
:103F3000F911C01100280EDD3E9A052A0BDA51B1A5
:103F400001EB8101890091FBF0F23E984BF82020B3
:103F50003E98401C3E905B1C53459BDB58463E9967
:103F600000F094F83E9800EBD070401001280ADD74
:103F70000BEB80025BF8200052F8042C104400EB9D
:103F8000D070401001E05BF82000C11EB529BFF4DD
:103F900076AF05493E31085C20600120287031E78A
:103FA000181F0020581700206E61000819FCFFFF41
:103FB000E82600202DE9F043814600240120DDF8A9
:103FC0001C805E1E0C6026E052F82070474521DD03
:103FD00002EB800454F8044CA7421BDD012500E0ED
:103FE0006D1C44199C4203DA52F824C06745F7D08F
:103FF000054452F82550AF420ADD0D680F2D07DA4F
:104000004FEA850C6D1C0D6049F80C00601C02E045
:10401000204600E0401CB042D6DBBDE8F083000043
:104020002DE9F0431E4613460C460A680546014634
:10403000184600F045F84FF0FF3840461CE00A46AD
:10404000411CC6F10009216013E000BF55F8217042
:10405000431C19D055F82030FB1AB34201DC4B4504
:1040600006DA23684FEA830C5B1C236045F80C706A
:10407000491C9142EADB401C21688142DFDC284672
:10408000BDE8F04300F002B84346E5E730B5012350
:1040900012E000BF50F823401A4602E040F82250D8
:1040A000521E002A05DD00EB820555F8045CA5428E
:1040B000F4DC40F822405B1C8B42EBDB30BD00009F
:1040C000F0B5012416E000BF51F82450234602E069
:1040D00041F823605B1E002B09DD01EB830650F8DD
:1040E000257056F8046C50F826C06745F0DC41F89E
:1040F0002350641C9442E7DBF0BD00002DE9F04141
:104100000C464FF0000106000B4608464FF00A052A
:1041100011D5B8212170BA216170022176420AE0DE
:1041200096FBF5F705FB176796FBF5F603EB8303A4
:1041300007EB4303401C002EF2D1244EC8BBC12024
:104140006054491CE3206054491C34E093FBF5F7AC
:1041500005FB17377F0093FBF5F316F807C004F84B
:1041600001C03744491C7F786754401E01F10101AA
:104170001FD0052790FBF7FC07FB1C0C06EB4C0C33
:104180009CF812C004F801C090FBF7FC07FB1C0C64
:1041900090FBF7F706EB4C0C491C9CF813C004F895
:1041A00001C0491C2FB1CD276754491CF227675421
:1041B000491C002BCAD1002060541AB11146204678
:1041C000FCF7ADF92046BDE8F0810000646200080C
:1041D00010B50446FEF7AAF80021204600F04AFC7C
:1041E0002046BDE8104000F055B870477047000009
:1041F00010B5FEF7DBFB0A48C178491CC170018A83
:10420000491C0182418A491C4182818A09B1491EA7
:104210008182C169002901D0491EC16110BD000021
:10422000000000207FB50C46054601210220FEF764
:1042300097F8ADF800400020ADF804500F4CADF8F1
:104240000600ADF8020069462046FEF709FA012291
:1042500011462046FEF7FBF91D208DF80C000121C8
:104260008DF80D108DF80E108DF80F1003A8FEF7C5
:104270002BF801212046FEF7D4F97FBD0004004051
:10428000704701680A7C90F83810406B5143C900B0
:10429000FCF751B910B5044600F012F9204600F0C1
:1042A00035F90028FAD12046BDE81040002100F081
:1042B00055B92DE9F041044690F870001F461546A7
:1042C0000E4630B1012809D002280CD0032815D1A0
:1042D0000FE0E16D20468847284408E0E16D204664
:1042E0008847301A09E0E16D20468847281A85B2D0
:1042F00004E0E16D20468847304486B22846A4F8A1
:104300006460A4F8660039460025204600F0D6FA1D
:10431000010003D0204600F001FA85B22846BDE82E
:10432000F08100003FB581B0044690F88C000899F8
:1043300000283AD0BDF81000002836D0012811D945
:10434000022902D0032907D00CE0BDF80820101A7A
:10435000401CADF8080005E0BDF80C20101A401C08
:10436000ADF80C0011F0010521D0B4F84810BDF8EB
:104370000800814219D8B4F84A10814215D9B4F81E
:104380004E30B4F84C2004A90DF10C0000F049F9AE
:1043900000280AD00095206BBDF81030BDF80C2025
:1043A0008568BDF808102046A84705B030BDB4F8B0
:1043B0004C10BDF80C008142F7D8B4F84E10814281
:1043C000F3D9B4F84A30B4F8482004A902A8DDE7CC
:1043D0002DE9FF4F81B090F89270DDF838901D46BE
:1043E000884606469FB10020834603984146401CFC
:1043F00080B2009008EB050083B23046039A00F0CB
:104400006DF800282BD001244FF0000A23E0012092
:10441000EAE700BF99F80000204202D086F89270C7
:1044200004E096F8910048B986F892B00123CDF8DF
:1044300000A041463046039AFFF774FF08F10100DF
:104440001FFA80F8600010F0FF0402D1012409F186
:1044500001096D1EADB2002DDCD186F8927005B059
:10446000BDE8F08F30B4024C446030BC00F0F7B8C7
:10447000854A00082DE9F84F8246DDE90A57D81D24
:10448000C0F3CC08501980B21C460090081983B2C2
:1044900016468946504600F021F800280ED00BE061
:1044A00023463246494650460097FFF791FF761C57
:1044B0006D1E4744B6B2ADB2002DF1D1BDE8F88F04
:1044C00010B5044690F8930010B12046FFF7D9FECE
:1044D0002046BDE81040002100F040B870B50D4600
:1044E0001E460446B0F84E10B0F84C00049B00F095
:1044F00042FA002809D0B4F84A10B4F8480033460C
:104500002A46BDE8704000F036BA70BD70B504466A
:1045100000F072FA94F8390094F838100844C5B2E3
:104520002068407CA84204D8204600F09BFA002076
:1045300070BD94F8930010B12046FFF7A2FE294603
:10454000204600F00BF8012070BD10B5044600F0C5
:1045500053FA2046BDE8104000F084BA10B5044676
:1045600080F83910006B016820468847206B41684D
:104570002046BDE81040084710B50446806D8842CB
:1045800009D004F17400A16500F001FA2046BDE8ED
:10459000104000F001B810BD10B5816D00291AD08F
:1045A00090F9813080F88E3090F9822080F88F2049
:1045B00090F88D1000290ED001290DD090F97E4081
:1045C00090F980100C449C4201DD80F88E408A42B4
:1045D00001DD80F88F1010BD90F983108B4201DA55
:1045E00080F88E1090F98410F1E72BB1012B05D0E3
:1045F000022B06D0104402E0084400E0801A80B28A
:104600007047401AFBE72BB1012B05D0022B06D0D7
:10461000401A02E0104400E0084480B27047801A5B
:10462000FBE730B504880D882544ADB2AC4205D90E
:104630009C4202D25D1EADB200E014469C4201D203
:10464000954201D8002030BD944200D214469D42CC
:1046500000D91D460480281B0880012030BD2DE9AB
:10466000F0471C4691468846064600F012FA00259F
:104670004FF6FF7772682178304690470346B8427C
:1046800025D0641CA3F57F40FE38F3D04A4641464E
:104690003046FFF70EFE96F8701031B1012907D0B1
:1046A000022908D003290FD10AE008EB000104E039
:1046B00009EB000106E0A8EB00011FFA81F803E016
:1046C000A9EB00011FFA81F9284485B2D2E72846F8
:1046D000BDE8F08710B50C4600F006F80122641E14
:1046E000A240801A40B210BD30B50568047B2A781C
:1046F000E2406318DBB2082B09D36D1C05602D78EE
:10470000C4F10804A5401543083BEAB2DBB201241A
:104710008C40641E14400373204630BD2DE9F843DD
:10472000054600F1600400F00CF915F96B6F2046A6
:10473000E97BFFF7CFFF8146297C2046FFF7CAFFC0
:104740000746697C20466B3DFFF7C4FF804694F91D
:104750000A00002857DDF019404247B2237CA088A8
:104760003A464946FFF741FFA080237C3A46E0885D
:104770004946FFF748FFE080A188277C02460B46A8
:1047800037B1012F0AD0022F40D0032F0FD146E0BE
:1047900094F90A7030443B449BB207E0891B491CE2
:1047A00094F90A705B1C89B29BB2384480B20090C5
:1047B0002846FFF793FE30B30020207284F80900EA
:1047C00095F876102046FFF78FFF814695F8771011
:1047D0002046FFF789FF074600224946284600F099
:1047E00027F801223946284600F022F80121204608
:1047F000FFF77AFF0028EFD194F90900B042DFDB20
:10480000A07B85F892004046BDE8F88394F90A70D1
:104810005B1CC91B491C89B29BB2921B04E094F932
:104820000A7033449BB2D21B521C92B2401CBDE7AB
:104830002DE9F74F84B00D46049C94F8687094F805
:1048400069806034A07AC01BC6B20196B54200D21E
:1048500001954FFA88F279B2A088B4F806B0237CAB
:1048600092468946FFF7C1FE0290237C5246494694
:104870005846FFF7C8FE0246069808B1A17B02E041
:10488000607B50B9E17B049880F89210207C009006
:10489000DDE901310498FFF745FDB54207D3A81BB8
:1048A000C5B208F10100002700F0FF08CAE7781937
:1048B000207284F8098007B0BDE8F08F70B50D460E
:1048C0000146806D1730FF2D10D8612D02D3B1F84D
:1048D000881003E0412D02D3B1F8861008444178D6
:1048E00019B30278AA42F9D1801C70BDB1F88A10C0
:1048F0000C1826460021304600F019F80444022125
:10490000304600F014F8361DA842F3D34FF6FF727C
:10491000207802EA00216078084306D0A84201D13D
:10492000E01C70BDA0780444F2E7002070BD08448C
:104930004FF6FF720178407802EA0121084480B204
:10494000704730B5054600F1600401660020207311
:1049500015F8781F2046FFF7C7FEA0726978204639
:10496000FFF7C2FEE072A87EA07310B10020E073D2
:1049700030BD0120FBE78A4205D2834201D89A422A
:1049800003D9012070478342F9D80020704770B5E1
:10499000054608782870487868708878A870C878C4
:1049A000E870087928714879687188790C46A8718F
:1049B000E079E871207A2872607A6872A07AA87229
:1049C000E07AE872207B2873607B6873A07BA87311
:1049D000E07BE873207C287411212046FFF7A7FFB5
:1049E000688213212046FFF7A2FFA88215212046E6
:1049F000FFF79DFFE88270BD2DE9F843064690F869
:104A0000387090F83950006800244FF6FF7890F81D
:104A10001190316830462A460B7C716B04FB03FC15
:104A20001FFA8CFC08EACC0C61440091002100F0D4
:104A30000AF8641C6D1CE4B2EDB2BC4201D24D45D3
:104A4000E7D3BDE8F8831CB58DF805108DF8062076
:104A5000049C8DF804300094012284686B460F2179
:104A6000A0471CBD30B484680023A44630BC1A465D
:104A70001021604730B484680023A4460A4630BC45
:104A80000B216047080001D00A2801D14FF6FF70C2
:104A90007047002180F826107047000030B50546A9
:104AA00087B001210420FDF767FC01218803FDF791
:104AB00063FC4FF40070ADF8100003208DF8120075
:104AC00018201E4C8DF8130004A92046FDF76AF942
:104AD0002015ADF8100004208DF8130004A920461D
:104AE000FDF760F925208DF8140000248DF815409D
:104AF0008DF8164001208DF8170005A8FDF7E4FB9E
:104B0000ADF80440ADF80640ADF80840ADF80C40F3
:104B10000C200B4CADF80A00009569462046FDF7C5
:104B200065FE012240F225512046FDF746FE012197
:104B30002046FDF719FE07B030BD00000008014017
:104B40000038014070B5054686B001210420FDF70C
:104B500013FC01214804FDF703FC0424ADF81040C8
:104B600003208DF8120018201D4E8DF8130004A9A3
:104B70003046FDF717F90820ADF810008DF8134006
:104B800004A93046FDF70EF926208DF81400002404
:104B90008DF815408DF8164001208DF8170005A8F6
:104BA000FDF792FBADF80440ADF80640ADF80840C3
:104BB000ADF80C400C200B4CADF80A00009569468E
:104BC0002046FDF713FE012240F225512046FDF755
:104BD000F4FD01212046FDF7C7FD06B070BD0000C1
:104BE000000801400044004030B5054687B001216F
:104BF0000820FDF7C1FB01218804FDF7B1FB4FF44C
:104C00008060ADF8100003208DF8120018201E4CB3
:104C10008DF8130004A92046FDF7C4F8E014ADF8A0
:104C2000100004208DF8130004A92046FDF7BAF8FF
:104C300027208DF8140000248DF815408DF81640BB
:104C400001208DF8170005A8FDF73EFBADF80440E4
:104C5000ADF80640ADF80840ADF80C400C200B4C08
:104C6000ADF80A00009569462046FDF7BFFD012218
:104C700040F225512046FDF7A0FD01212046FDF719
:104C800073FD07B030BD0000000C0140004800403B
:104C9000FDF708B970B52A49D1F8342162B1002274
:104CA000C1F8B421284C274A0025A16B5054491C57
:104CB000A1630A2802D037E00122F1E723A12148AD
:104CC000A563FBF71AFC30B1801DFBF709FC2062DD
:104CD000022802D028E0206AFAE71EA11948FBF753
:104CE0000CFC38B1001DFBF7FBFB18B300201A4980
:104CF000C1F8BC0119A11348FBF7FFFB184E38B1EE
:104D0000001DFBF7EDFBB8B15FF00000C6F88C01A9
:104D100014A10C48FBF7F1FB30B1001DFBF7E0FBE1
:104D200060B10020C6F89001A06BB0F5007F00DBF9
:104D3000A56370BD0120DAE70120E7E70120F1E774
:104D4000000022427C020020000000206D6F64659C
:104D5000000000004A310000000021424A320000F9
:104D6000008021424A3300000C490A7B3AB1012AF3
:104D700009D0022A0AD0032A0BD000220A73FD2888
:104D80000AD1012007E00871022004E048710320E5
:104D900001E08871042008737047000000000020C3
:104DA00010B500290AD00878002807D005487844B3
:104DB000FCF790F8002801D0002010BD024878448C
:104DC00010BD0000122700000A27000010B50029BE
:104DD0000AD00878002807D005487844FCF77AF80C
:104DE000002801D0002010BD0248784410BD00000A
:104DF00002270000FA26000021F00042A2F16052D2
:104E0000B2F5801F01F0004328BFD2F17F6C0BD9AF
:104E10005FEA001C43EAC20242EB507018BF7047C1
:104E200028BF20F001007047B2F5801FBCBF1846B4
:104E300070474FEA410C1CF5001F02D2084600F0F3
:104E400087BD70B500F00EFB00000089FFF7F6BFCC
:104E50004FF00040A0F580007047000010B591EAC7
:104E6000030F48BF83F0004300F16483841A71EBA1
:104E7000030C05D2121943EB0C03001B61EB0C0170
:104E8000DFF824E14FEA1154A4EB135C1EEA430F50
:104E900018BF9EEA445F73D023EA0E03DCF1200EB4
:104EA00021EA045143F4801332D322FA0CFE10EBB2
:104EB0000E0023FA0CFE41EB0E01CCF1200E03FA9A
:104EC0000EFE10EB0E0051F10001B1F5801FCCF188
:104ED000200E32D201EB045112FA0EF2BDE810405E
:104EE00058BF7047401C38BF5FEA420218BF704786
:104EF000002814BF20F0010041F100014FEA4103F6
:104F000013F5001F38BF7047A1F1C04100F0F8BA97
:104F1000012A43EB0302ACF1200CDCF11F0E32BF7F
:104F20004FF0000E23FA0CF310EB030041EB045199
:104F3000B4EB115FD0D0A1EB045101F58011490809
:104F40005FEA300001EB04510ED350F1000038BF8E
:104F500012FA0EFE08D1BDE81040C9E7401C38BF68
:104F60005FEA4202CAD1C3E7BDE810404FEA4103FD
:104F700013F5001F38BF7047A1F1C04100F0C0BA5F
:104F80009EEA445F08D011EA5E0FBDE8104004BFFE
:104F900001F0004100207047BDE8104070B500F0FE
:104FA00061FA00BF64FBBE3E0000E0FF2DE9C04196
:104FB00030B4DFF8A0C23CEA111418BF3CEA131465
:104FC00000F0EC8081EA03051CEA111444EAD57470
:104FD00018BF1CEA131500F0C780A4EB05044FF0BE
:104FE000004545EAC12145EAC32341EA505143EA5D
:104FF000525304F17F74994204F500344FEAC02003
:105000004FEAC22208BF904200F09C804FEA13652D
:105010000FF24016765D4FEA134506FB05F7C7F120
:10502000807706FB07F74FEAD737A7FB036876427E
:10503000C8F58038A7FB06CE38BFA8F1010807FBEA
:1050400008E64FF0000EA6FB028CE6FB03CEDCF177
:10505000000CCEF1004E38BFAEF1010EA6FB0C588D
:105060004FF000074FF00005E6FB0E87A1FB08C6D6
:10507000A0FB07CE16EB0E0645F10005E1FB076528
:1050800015F1E04E7EBFA4F580345FEA46066D411F
:1050900016F1800745F100054FEA17274FEA06662B
:1050A00047EA0567A6F1DE46B6F1805F4FEA1525AF
:1050B0001FD9384624F0010C05EBC471BCF1FE6F1A
:1050C00001EB0C1102D8F0BCBDE8008124425CBFAA
:1050D00001F5801E9EEAC47F02D4F0BCBDE80081C9
:1050E000244238D4F0BCA1F1C041BDE8004100F039
:1050F00007BA4FEAD22242EA43524FEAD323A7FB30
:1051000002864FEAD02040EA415007FB03661EEAC0
:105110000E0F4FEAD12105FB026658BFA6EB0056E1
:10512000B6EB00564FEA520E4EEAC37E18EB0E0E57
:1051300056EB530EBDD518EB02085E417F1C55F1AE
:105140000005B6E74FF480154FF000074FF000065A
:105150004FF00008ADE7F0BC4FF0000001F1C04196
:1051600001F00041BDE8008111EA0C1F0CEA1315A3
:1051700000D00CE013EA0C1F00F025804FF0000077
:10518000F0BC81EA030101F00041BDE80081F0BC00
:10519000BDE8004181EA030100F0B2B9F0BCBDE80E
:1051A000004170B500F05EF9097EFC3E00F007B8E2
:1051B00081EA03014FF0000001F00041704781EAED
:1051C000030100F09DB9F0BCBDE800414FF00000C4
:1051D00021497047FFFDFBF9F7F5F4F2F0EEEDEB36
:1051E000E9E8E6E4E3E1E0DEDDDBDAD8D7D5D4D3E5
:1051F000D1D0CFCDCCCBCAC8C7C6C5C4C2C1C0BF31
:10520000BEBDBCBBBAB9B8B7B6B5B4B3B2B1B0AF36
:10521000AEADACABAAA9A8A8A7A6A5A4A3A3A2A11A
:10522000A09F9F9E9D9C9C9B9A99999897979695D5
:1052300095949393929191908F8F8E8E8D8C8C8B71
:105240008B8A8989888887878685858484838382F9
:10525000828181800000FF070000F87F4FEA410350
:105260004FEA5353A3F58063D3F11E03C8BFD3F1B4
:10527000210C0CDD4FF0004242EAC12242EA5052BA
:1052800032FA03FC8CEAE17CACEBE1707047102B46
:10529000C4BF0020704703F5787CBCF1FF3F04D009
:1052A0006FF0004282EA2100704770B500F0DAF832
:1052B0004992248000207047F2E710F0004248BF76
:1052C0004042B0FA80F310FA03F10AD0C3F11D0393
:1052D00003F580634FEA415002EB035202EBD12108
:1052E00070474FF000007047B0FA80F310FA03F1F6
:1052F0000AD0C3F11D0303F580634FEA41504FEA22
:10530000035202EBD12170474FF0000070470000BC
:10531000DFF848C170B51CEA111E1EBF1CEA131548
:105320009EEA0C0F95EA0C0F00F06F8081EA0304EF
:1053300023EA4C134EEAD47E21EA4C1141F4801149
:1053400043F48013AE44A1FB024CA0FB0365AEF115
:105350007F7E361955EB0C05A1FB034C4CF1000385
:10536000A0FB021C16EB0C06654153F10003094239
:1053700018BF46F0010613F4007F0BD14FEA03314A
:105380004FEA0530340341EA155140EA16506FF0F8
:1053900003020AE04FEAC3214FEAC520F40241EAC2
:1053A000555140EA56506FF0020202EB2E4201EBDB
:1053B000025585EACE710AD05FEA440C18BF24F08A
:1053C000004450F1000041F1000120EAD47040F2A5
:1053D000FE7C624500D270BDA84214BF4FF08044ED
:1053E0004FF04044002E08BF0024BEF1806FA8BFDC
:1053F000A1F1C041BDE8704080F282804FF0000012
:1054000001F1C04101F0004170479EEA0C0F0CEA27
:10541000131518BF95EA0C0F06D04FF0000081EA73
:10542000030E0EF0004170BD00F01CF88900013E33
:1054300000F007B800F009B84FEA430C5FEA5C5C83
:1054400008D081EA030100F05BB84FEA410C5FEA43
:105450005C5CF6D14FF00000014970470000FF0787
:105460000000F87F0EF1020E2EF0030E5EF8046BC2
:10547000364205D4012A43EB030515F5001F12D867
:10548000012841EB010C1CF5001F0CD80ED14FEA8E
:10549000D17C15F5001F0CEB4C0C0CF1020C08BF75
:1054A0004CEBD37C04E04FF0080C01E04FEAD37CD6
:1054B0000CEB4C0526FA05F606F00706B6F1040CCF
:1054C00006D20EEB860CBDE870404CF0010C604734
:1054D000DFE80CF0090B02024FF000414FF0000032
:1054E000A1F5002170BD19461046012851EB0104B9
:1054F00018BFD4F5001484BF002001F0004170BD36
:105500000808A0F500114FEA3101704791EA030F36
:1055100010B581F000413FF5A9AC83F0004300F0E5
:1055200009B8000010B591EA030F48BF83F00043AB
:105530003FF59CAC841A71EB030C07D212198CF066
:10554000004C43EB0C03001B61EB0C01DFF8A4E102
:105550004FEA1154A4EB135C1EEA430F18BF9EEAF6
:10556000445F00F0B08023EA6E03524221EA045106
:10557000C3EB6E0338BF5B1EDCF1200E25D322FA8D
:105580000CFE10EB0E0043FA0CFE41EB0E01CCF1C9
:10559000200E03FA0EFE10EB0E0051F10001CCF1CB
:1055A000200E29D412FA0EF201EB0451BDE810408E
:1055B00058BF7047401C1CBFB2F1004F7047002815
:1055C0000CBF491C20F00100704712EB020E43EBA8
:1055D000030218BF4FF0010E4EEA4202ACF1200C5C
:1055E000DCF11E0E54D943FA0CFE10EB0E0051F103
:1055F000FF31CCF11E0ED5D50EF1010E12FA0EFEC2
:10560000404141EB010101EB445C5FEA5C5C10D975
:1056100010EBDE7001EB045138BFBEF1004FBDE866
:10562000104018BF704700280CBF491C20F0010033
:10563000704730D24FEAD42C11F5001124F40064E5
:105640001BD0B1FA81F20B3AA41AA41ED2F12003A6
:10565000914030FA03F31943904001EBCC71002CD8
:1056600001EB0451BDE81040A8BF704701F1C041F3
:105670004FF0000001F000417047B0FA80F310FADB
:1056800003F100D110BDE41A173C4805C90AE4E74C
:1056900001EB045110BD491001EB0451BDE810406D
:1056A0004FEA300002E04FF0000170474A0008BFA7
:1056B0000042F8D0B2F5001F28BF704701F000414A
:1056C0004FF0000070479EEA445F07D011EA5E0F7A
:1056D000BDE8104004BF002100207047BDE8104025
:1056E00070B5FFF7BFFE00BF40DFF63E83F000411C
:1056F000104670470000E0FF43004FEAD30C4FEA2A
:105700003C0C43401FBF40070CF1605113F0FE4FAB
:1057100070471CF0006F03D100200CF0004170476F
:105720000CF0004343EA507010B540EACC0000F0A2
:10573000C9F800BF000000924FEA0001FFF7E0BE89
:105740004FF000414FF00000A1F50021704700002C
:1057500090EA010F48BF81F0004100F13681421A02
:105760003CBF801A89184FEAD0524FF07F4C1CEA98
:10577000410FA2EBD15318BF9CEA026F00F03B80AF
:105780004FF0004C4CEA00204CEA012121FA03FCC6
:1057900010EB0C0C1ED202F1FF325FEA1C2040EB32
:1057A000C25038BF70471CF07F0F4FEA400C18BF43
:1057B000BCF17F4F38BF7047C3F12003994008BF49
:1057C00020F00100BCF17F4F38BF7047A0F1C0400E
:1057D00000F0BEB84FEA3C00000A40EBC25028BFC0
:1057E0001CF0FF0F4FEA400CE6D018BFBCF17F4F12
:1057F00038BF7047EAE79CEA026F05D010EA5C0FF9
:1058000008BF00F00040704710B500F05BF800BF23
:1058100064FBBE3E401058BFC0F14040491058BF25
:10582000C1F140418142EFF30080704710F0004128
:1058300048BF4042B0FA80F310FA03F2C3F19D036F
:105840000BD051EAC35101EB1220530638BF704709
:1058500000F1010008BF20F00100704750EA010C80
:1058600000F113801CF5000F58BFBCF5000F01D4E8
:105870008842704707D710F5000F58BF11F5000F89
:1058800015D488427047894270471CF5000F04D533
:10589000BCF5000FF7D5814270474FF0807C1CEBC0
:1058A000400F38BF1CEB410F01D28142704710B549
:1058B00000F008F8922449004FF000504FF080515A
:1058C000FFF7A8BF0EF1020E2EF0030E5EF8044B98
:1058D000244204D44FEA4102B2F17F4F11D84FEA7B
:1058E0004003B3F17F4F0CD80ED14FEAD07CB2F118
:1058F0007F4F0CEB4C0C0CF1020C08BF4CEBD17C35
:1059000004E04FF0080C01E04FEAD17C0CEB4C03B3
:1059100024FA03F404F00704B4F1040C06D20EEBED
:10592000840CBDE810404CF0010C6047DFE80CF03F
:10593000070802024FF00040A0F5800010BD0846A5
:10594000420018BFD2F1807288BF00F0004010BD45
:10595000FF2141EAD050C005704751EA000C00F128
:1059600013801CF5000F58BFBCF5000F01D4814215
:10597000704707D711F5000F58BF10F5000F15D469
:1059800081427047894270471CF5000F04D5BCF571
:10599000000FF7D5884270474FF0807C1CEB410F19
:1059A00038BF1CEB400F01D28842704780EA0100EB
:1059B00081EA000180EA0100FFF779BF90EA010F58
:1059C00048BF81F000413FF5CAAE421A04D882F0C8
:1059D0000042A0EB020011444FEAD0524FF07F4C3E
:1059E0001CEA410FA2EBD15318BF9CEA026F4AD0C8
:1059F0004FF0004C4CEA00204CEA012121FA03FC54
:105A0000B0EB0C0C0FD412F0FE0F36D05FEA4C0056
:105A10001DD5001240EBC25038BF70471CF03F0F3D
:105A200018BF70470BE0A2F101025FEA1C2040EBB7
:105A3000C25038BF70471CF07F0F18BF7047C3F1CA
:105A40002003994014BF401E20F0010070478008D9
:105A50004FEA122308BF7047B0FA80FCA2EB0C0299
:105A6000CCF1280C60FA0CF093EA122F04BF00EB83
:105A7000C25070474FEAC3707047130A5FEADC10E8
:105A800008BF7047F6E79CEA026F04D010EA5C0F8B
:105A900008BF0020704710B5FFF714FF40DFF63E47
:105AA00081F000407047FAF7C9BE8000841088106A
:105AB000900890048000FE1F001000100010FC1FD2
:105AC000001000100010FE1F00100808100810043D
:105AD000FF7F00007C10441244127C1244124412D6
